S01700004763634170706C69636174696F6E322E737265635A
S11300000C9454000C945E000C945E000C945E00FE
S11300100C945E000C945E000C945E000C945E00E4
S11300200C945E000C945E000C945E000C945E00D4
S11300300C945E000C945E000C945E000C945E00C4
S11300400C945E000C945E000C945E000C945E00B4
S11300500C945E000C945E000C945E000C945E00A4
S11300600C945E000C945E00001F000000001F0052
S1130070001F101010101F00001F181818181F0060
S1130080001F1C1C1C1C1F00001F1E1E1E1E1F0008
S1130090001F1F1F1F1F1F0003070F1F0F07030051
S11300A0181C1E1F1E1C180011241FBECFEFD8E001
S11300B0DEBFCDBF0E9453010C9466010C94000076
S11300C0982F907F9BB99BB191609BB99BB1946031
S11300D09BB92AE62A95F1F700C09BB19B7F9BB997
S11300E09BB19E7F9BB99AE69A95F1F700C020E1F7
S11300F0829FC00111248BB98BB181608BB98BB104
S113010084608BB98AE68A95F1F700C08BB18B7F46
S11301108BB98BB18E7F8BB99AE69A95F1F700C0B3
S11301200895982F907F9BB99BB194609BB9EFEC95
S1130130F7E03197F1F700C000009BB19B7F9BB9BA
S1130140EFECF7E03197F1F700C00000F0E18F9F8A
S1130150C00111248BB98BB184608BB98FEC97E00B
S11301600197F1F700C000008BB18B7F8BB9EFECE6
S1130170F7E03197F1F700C00000089581E00E9494
S11301809100089582E00E9491000895EF92FF92F9
S11301900F931F93CF93DF937C01862F90E0880FFA
S11301A0991F880F991F880F991F8064C0E0D0E0C1
S11301B00DC0F701EC0FFD1F149101E0080F0E9420
S11301C09100812F0E9460002196802FC830D105B4
S11301D080F3DF91CF911F910F91FF90EF900895DD
S11301E0CF93DF938FE295E70197F1F700C000000A
S11301F01BB81BB88AB1806F8AB98AB187608AB983
S113020090E39BB98BB184608BB9EFECF7E0319745
S1130210F1F700C000008BB18B7F8BB9EFECF7E0F6
S11302203197F1F700C000009BB98BB184608BB9A2
S11302308FEC97E00197F1F700C000008BB18B7F42
S11302408BB9EFECF7E03197F1F700C0000080E2E2
S11302508BB98BB184608BB98FEC97E00197F1F780
S113026000C000008BB18B7F8BB9EFECF7E03197C6
S1130270F1F700C0000088E20E9491008CE00E9427
S1130280910060E0C0E00AC0D1E0D60F8C2F90E06E
S113029088599F4F0E94C600C85F6D2FC034A0F3D9
S11302A0DF91CF9108950E94F0000E94BE000E9449
S11302B0C2002FEF80E792E0215080409040E1F7A8
S11302C000C0000081E30E946000F3CFF894FFCFE8
S9030000FC
